{
  "contractName": "Game",
  "abi": [
    {
      "constant": true,
      "inputs": [
        {
          "name": "",
          "type": "uint16"
        }
      ],
      "name": "players",
      "outputs": [
        {
          "name": "attack1",
          "type": "uint256"
        },
        {
          "name": "attack2",
          "type": "uint256"
        },
        {
          "name": "attack3",
          "type": "uint256"
        },
        {
          "name": "exp",
          "type": "uint16"
        },
        {
          "name": "gold",
          "type": "uint16"
        },
        {
          "name": "id",
          "type": "address"
        }
      ],
      "payable": false,
      "stateMutability": "view",
      "type": "function"
    },
    {
      "constant": true,
      "inputs": [],
      "name": "playerCount",
      "outputs": [
        {
          "name": "",
          "type": "uint16"
        }
      ],
      "payable": false,
      "stateMutability": "view",
      "type": "function"
    },
    {
      "constant": true,
      "inputs": [],
      "name": "num_players",
      "outputs": [
        {
          "name": "",
          "type": "uint16"
        }
      ],
      "payable": false,
      "stateMutability": "view",
      "type": "function"
    },
    {
      "constant": true,
      "inputs": [],
      "name": "moderator",
      "outputs": [
        {
          "name": "",
          "type": "address"
        }
      ],
      "payable": false,
      "stateMutability": "view",
      "type": "function"
    },
    {
      "constant": true,
      "inputs": [],
      "name": "characterCount",
      "outputs": [
        {
          "name": "",
          "type": "uint256"
        }
      ],
      "payable": false,
      "stateMutability": "view",
      "type": "function"
    },
    {
      "constant": true,
      "inputs": [
        {
          "name": "",
          "type": "uint256"
        }
      ],
      "name": "characters",
      "outputs": [
        {
          "name": "characterName",
          "type": "string"
        },
        {
          "name": "attack1",
          "type": "uint256"
        },
        {
          "name": "attack2",
          "type": "uint256"
        },
        {
          "name": "attack3",
          "type": "uint256"
        }
      ],
      "payable": false,
      "stateMutability": "view",
      "type": "function"
    },
    {
      "constant": true,
      "inputs": [
        {
          "name": "",
          "type": "address"
        }
      ],
      "name": "players_map",
      "outputs": [
        {
          "name": "",
          "type": "uint256"
        }
      ],
      "payable": false,
      "stateMutability": "view",
      "type": "function"
    },
    {
      "inputs": [],
      "payable": false,
      "stateMutability": "nonpayable",
      "type": "constructor"
    },
    {
      "constant": false,
      "inputs": [
        {
          "name": "characterChoice",
          "type": "uint256"
        }
      ],
      "name": "register_player",
      "outputs": [],
      "payable": false,
      "stateMutability": "nonpayable",
      "type": "function"
    }
  ],
  "bytecode": "0x60806040526001600260006101000a81548161ffff021916908361ffff1602179055506000600760006101000a81548161ffff021916908361ffff16021790555034801561004c57600080fd5b5033600560006101000a81548173ffffffffffffffffffffffffffffffffffffffff021916908373ffffffffffffffffffffffffffffffffffffffff16021790555060006080604051908101604052806040805190810160405280600581526020017f48756d616e0000000000000000000000000000000000000000000000000000008152508152602001600c81526020016017815260200160228152509080600181540180825580915050906001820390600052602060002090600402016000909192909190915060008201518160000190805190602001906101319291906102ea565b5060208201518160010155604082015181600201556060820151816003015550505060006080604051908101604052806040805190810160405280600381526020017f456c6600000000000000000000000000000000000000000000000000000000008152508152602001600c81526020016017815260200160228152509080600181540180825580915050906001820390600052602060002090600402016000909192909190915060008201518160000190805190602001906101f69291906102ea565b5060208201518160010155604082015181600201556060820151816003015550505060006080604051908101604052806040805190810160405280600881526020017f5072656461746f720000000000000000000000000000000000000000000000008152508152602001600c81526020016017815260200160228152509080600181540180825580915050906001820390600052602060002090600402016000909192909190915060008201518160000190805190602001906102bb9291906102ea565b50602082015181600101556040820151816002015560608201518160030155505050600360018190555061038f565b828054600181600116156101000203166002900490600052602060002090601f016020900481019282601f1061032b57805160ff1916838001178555610359565b82800160010185558215610359579182015b8281111561035857825182559160200191906001019061033d565b5b509050610366919061036a565b5090565b61038c91905b80821115610388576000816000905550600101610370565b5090565b90565b610a108061039e6000396000f30060806040526004361061008e576000357c0100000000000000000000000000000000000000000000000000000000900463ffffffff1680632c185e5f14610093578063302bcc5714610137578063332d2b871461016a578063387439041461019d5780633b160350146101f45780634810bc591461021f5780638c62c0ea146102da578063ebbbf8af14610307575b600080fd5b34801561009f57600080fd5b506100c2600480360381019080803561ffff16906020019092919050505061035e565b604051808781526020018681526020018581526020018461ffff1661ffff1681526020018361ffff1661ffff1681526020018273ffffffffffffffffffffffffffffffffffffffff1673ffffffffffffffffffffffffffffffffffffffff168152602001965050505050505060405180910390f35b34801561014357600080fd5b5061014c6103d6565b604051808261ffff1661ffff16815260200191505060405180910390f35b34801561017657600080fd5b5061017f6103ea565b604051808261ffff1661ffff16815260200191505060405180910390f35b3480156101a957600080fd5b506101b26103fe565b604051808273ffffffffffffffffffffffffffffffffffffffff1673ffffffffffffffffffffffffffffffffffffffff16815260200191505060405180910390f35b34801561020057600080fd5b50610209610424565b6040518082815260200191505060405180910390f35b34801561022b57600080fd5b5061024a6004803603810190808035906020019092919050505061042a565b6040518080602001858152602001848152602001838152602001828103825286818151815260200191508051906020019080838360005b8381101561029c578082015181840152602081019050610281565b50505050905090810190601f1680156102c95780820380516001836020036101000a031916815260200191505b509550505050505060405180910390f35b3480156102e657600080fd5b5061030560048036038101908080359060200190929190505050610501565b005b34801561031357600080fd5b50610348600480360381019080803573ffffffffffffffffffffffffffffffffffffffff16906020019092919050505061089b565b6040518082815260200191505060405180910390f35b60066020528060005260406000206000915090508060000154908060010154908060020154908060030160009054906101000a900461ffff16908060030160029054906101000a900461ffff16908060060160009054906101000a900473ffffffffffffffffffffffffffffffffffffffff16905086565b600760009054906101000a900461ffff1681565b600260009054906101000a900461ffff1681565b600560009054906101000a900473ffffffffffffffffffffffffffffffffffffffff1681565b60015481565b60008181548110151561043957fe5b9060005260206000209060040201600091509050806000018054600181600116156101000203166002900480601f0160208091040260200160405190810160405280929190818152602001828054600181600116156101000203166002900480156104e55780601f106104ba576101008083540402835291602001916104e5565b820191906000526020600020905b8154815290600101906020018083116104c857829003601f168201915b5050505050908060010154908060020154908060030154905084565b60608060008060006105116108b3565b3373ffffffffffffffffffffffffffffffffffffffff16600560009054906101000a900473ffffffffffffffffffffffffffffffffffffffff1673ffffffffffffffffffffffffffffffffffffffff16141515156105d7576040517f08c379a00000000000000000000000000000000000000000000000000000000081526004018080602001828103825260198152602001807f6d6f64657261746f722063616e6e6f742072656769737465720000000000000081525060200191505060405180910390fd5b60006040519080825280602002602001820160405280156106075781602001602082028038833980820191505090505b509550600060405190808252806020026020018201604052801561063a5781602001602082028038833980820191505090505b50945060008781548110151561064c57fe5b906000526020600020906004020160010154935060008781548110151561066f57fe5b906000526020600020906004020160020154925060008781548110151561069257fe5b906000526020600020906004020160030154915061010060405190810160405280858152602001848152602001838152602001600a61ffff168152602001600a61ffff1681526020018781526020018681526020013373ffffffffffffffffffffffffffffffffffffffff168152509050600760009054906101000a900461ffff1661ffff16600360003373ffffffffffffffffffffffffffffffffffffffff1673ffffffffffffffffffffffffffffffffffffffff1681526020019081526020016000208190555080600660006007600081819054906101000a900461ffff168092919060010191906101000a81548161ffff021916908361ffff16021790555061ffff1661ffff16815260200190815260200160002060008201518160000155602082015181600101556040820151816002015560608201518160030160006101000a81548161ffff021916908361ffff16021790555060808201518160030160026101000a81548161ffff021916908361ffff16021790555060a082015181600401908051906020019061082a929190610917565b5060c0820151816005019080519060200190610847929190610917565b5060e08201518160060160006101000a81548173ffffffffffffffffffffffffffffffffffffffff021916908373ffffffffffffffffffffffffffffffffffffffff16021790555090505050505050505050565b60036020528060005260406000206000915090505481565b61010060405190810160405280600081526020016000815260200160008152602001600061ffff168152602001600061ffff1681526020016060815260200160608152602001600073ffffffffffffffffffffffffffffffffffffffff1681525090565b828054828255906000526020600020908101928215610990579160200282015b8281111561098f5782518260006101000a81548173ffffffffffffffffffffffffffffffffffffffff021916908373ffffffffffffffffffffffffffffffffffffffff16021790555091602001919060010190610937565b5b50905061099d91906109a1565b5090565b6109e191905b808211156109dd57600081816101000a81549073ffffffffffffffffffffffffffffffffffffffff0219169055506001016109a7565b5090565b905600a165627a7a723058202c3cad4adabf70d05ad535cac883a0e2cd612781570426a7750070c78b37f41a0029",
  "source": "pragma solidity ^0.4.24;\n\n// import \"./Gold.sol\";\n\ncontract Game{\n    \n    struct Character{\n        string characterName;\n        uint attack1;\n        uint attack2;\n        uint attack3;\n    }\n\n    Character[] public characters;\n    uint public characterCount;\n    struct Player{\n        uint attack1;\n        uint attack2;\n        uint attack3;\n        uint16 exp;\n        uint16 gold;\n        address[] challenges_inbox;\n        address[] challenges_sent;\n        address id;   \n        // mapping (address => uint) rounds_played;\n        // mapping (address => uint) rounds_won;\n    }\n    uint16 public num_players = 1; \n    mapping(address => uint) public players_map;\n    address[] request_list;\n    address public moderator;\n    // Player[] public players;\n    mapping (uint16 => Player) public players;\n    uint16 public playerCount = 0;\n    constructor() public {\n        moderator = msg.sender;\n        characters.push(Character(\"Human\",12,23,34));\n        characters.push(Character(\"Elf\",12,23,34));\n        characters.push(Character(\"Predator\",12,23,34));\n        characterCount = 3;\n    }\n\n    function register_player(uint characterChoice) public {\n        require(moderator != msg.sender,\"moderator cannot register\");\n        address[] memory challenges_inbox_ = new address[](0);\n        // challenges_inbox_[0]=1;\n        // challenges_inbox_[1]=2;\n        // challenges_inbox_[2]=3;\n        address[] memory challenges_sent_ = new address[](0);\n        // uint16[] memory moves_ =  new uint16[](0);\n        uint attack1 = characters[characterChoice].attack1;\n        uint attack2 = characters[characterChoice].attack2;\n        uint attack3 = characters[characterChoice].attack3;\n        Player memory playerInstance = Player(attack1,attack2,attack3,10,10,challenges_inbox_,challenges_sent_,msg.sender);\n        // playerInstance.moves=moves_;\n        // playerInstance.exp=exp;\n        // playerInstance.health=health;\n        // playerInstance.gold=gold;\n        // playerInstance.handle=handle;\n        // playerInstance.challenges_inbox=challenges_inbox_;\n        // playerInstance.challenges_sent=challenges_sent_;\n        // playerInstance.id=msg.sender;\n        players_map[msg.sender] = playerCount;\n        players[playerCount++] = playerInstance;\n    }\n\n    // function challenge_player(address to, uint16[4] move) public {\n    //     address player = msg.sender;\n    //     uint16 from = index_player(msg.sender);\n    //     uint16 _to = index_player(to);\n    //     players[_to].challenges_inbox.push(players[from].id);\n    //     players[from].challenges_sent.push(to);\n    //     players[from].moves = move;\n        \n        \n    //     // players[from].rounds_played[players[_to].id]++;\n    //     // players[_to].rounds_played[players[from].id]++;\n    // }\n\n    function index_player(address player)\n    private\n    returns(uint16)\n    {   \n        uint16 from;\n        for (uint16 i = 0; i < playerCount; i++){\n            if (players[i].id == player){\n                from = i;\n            }\n        }\n        return from;\n    }\n\n    // function accept_challenge(uint16 idx, uint16[4] moves) public{\n    //     uint16 from = index_player(msg.sender);\n    //     players[from].moves = moves;\n    //     request_list.push(players[from].id);\n    //     request_list.push(players[from].challenges_inbox[idx]);\n    // }\n\n    // function see_requests() public { //rename to start games\n    //     require(msg.sender != moderator);\n    //     for (uint16 i = 0; i < request_list.length; i+=2){\n    //         play(request_list[i], request_list[i + 1]);\n    //     }\n    //     request_list.length=0;\n    // }\n\n    // function play(address p1, address p2) public {\n    //     require(msg.sender != moderator);\n    //     address winner = get_winner(p1, p2);\n    //     address loser;\n    //     if(p1 == winner){\n    //         loser = p2;\n    //     }\n    //     else{\n    //         loser = p1;\n    //     }\n    //     uint16 idx_winner = index_player(winner);\n    //     uint16 idx_loser = index_player(loser);\n    //     uint16 c = players[idx_winner].exp - players[idx_loser].exp; \n        \n    //     // players[idx_winner].rounds_won[players[idx_loser].id]++;\n    //     // if(players[idx_loser].rounds_played[players[idx_winner].id]==3){\n        \n        \n    //     players[idx_winner].gold += c;\n    //     players[idx_loser].gold -= c;\n    //     players[idx_winner].exp += 5*c;\n    //     players[idx_loser].exp -= 3*c;\n        \n    //     // players[idx_winner].gold += players[idx_loser].gold \n    // }\n\n    // function buy_gold() public payable{\n    //     // uint16 no_gold = convert(msg.value);\n    //     uint16 no_gold = uint16(msg.value);\n    //     uint16 idx = index_player(msg.sender);\n    //     players[idx].gold += no_gold;       \n    // }\n\n//     function get_winner(address p1, address p2) public returns(address){\n//         require((msg.sender != moderator));\n//         uint16 idx1 = index_player(p1);\n//         uint16 idx2 = index_player(p2);\n//         // TODO implement a turn based smart contract so that winner will be calculated by each attack and defense pattern\n//         Player P1 = players[idx1];\n//         Player P2 = players[idx2];\n//         uint16 difference = 0;\n//         for (uint16 i = 0; i < P1.moves.length; i++){\n//             difference += P1.attacks[P1.moves[i]] - P2.attacks[P1.moves[i]];\n//         }   \n//         if (difference > 0){\n//             return p1;\n//         }\n//         else{\n//             return p2;\n//         }\n//     }\n}",
  "sourcePath": "/home/vineet/IIIT/DTB/game/Role-Play-/contracts/Game.sol",
  "compiler": {
    "name": "solc",
    "version": "0.4.24+commit.e67f0147.Emscripten.clang"
  },
  "schemaVersion": "2.0.1",
  "updatedAt": "2018-11-28T09:56:20.634Z"
}