{
  "contractName": "Game",
  "abi": [
    {
      "constant": true,
      "inputs": [
        {
          "name": "",
          "type": "uint16"
        }
      ],
      "name": "players",
      "outputs": [
        {
          "name": "exp",
          "type": "uint16"
        },
        {
          "name": "health",
          "type": "uint16"
        },
        {
          "name": "gold",
          "type": "uint16"
        },
        {
          "name": "handle",
          "type": "string"
        },
        {
          "name": "id",
          "type": "address"
        }
      ],
      "payable": false,
      "stateMutability": "view",
      "type": "function"
    },
    {
      "constant": false,
      "inputs": [
        {
          "name": "_attacks",
          "type": "uint16[]"
        },
        {
          "name": "exp",
          "type": "uint16"
        },
        {
          "name": "health",
          "type": "uint16"
        },
        {
          "name": "gold",
          "type": "uint16"
        },
        {
          "name": "handle",
          "type": "string"
        }
      ],
      "name": "register_player",
      "outputs": [],
      "payable": false,
      "stateMutability": "nonpayable",
      "type": "function"
    }
  ],
  "bytecode": "0x60806040526000600160006101000a81548161ffff021916908361ffff16021790555034801561002e57600080fd5b506109178061003e6000396000f30060806040526004361061004c576000357c0100000000000000000000000000000000000000000000000000000000900463ffffffff1680632c185e5f146100515780635fa19bb61461015b575b600080fd5b34801561005d57600080fd5b50610080600480360381019080803561ffff169060200190929190505050610231565b604051808661ffff1661ffff1681526020018561ffff1661ffff1681526020018461ffff1661ffff168152602001806020018373ffffffffffffffffffffffffffffffffffffffff1673ffffffffffffffffffffffffffffffffffffffff168152602001828103825284818151815260200191508051906020019080838360005b8381101561011c578082015181840152602081019050610101565b50505050905090810190601f1680156101495780820380516001836020036101000a031916815260200191505b50965050505050505060405180910390f35b34801561016757600080fd5b5061022f60048036038101908080359060200190820180359060200190808060200260200160405190810160405280939291908181526020018383602002808284378201915050505050509192919290803561ffff169060200190929190803561ffff169060200190929190803561ffff169060200190929190803590602001908201803590602001908080601f0160208091040260200160405190810160405280939291908181526020018383808284378201915050505050509192919290505050610349565b005b60006020528060005260406000206000915090508060020160009054906101000a900461ffff16908060020160029054906101000a900461ffff16908060020160049054906101000a900461ffff1690806003018054600181600116156101000203166002900480601f0160208091040260200160405190810160405280929190818152602001828054600181600116156101000203166002900480156103195780601f106102ee57610100808354040283529160200191610319565b820191906000526020600020905b8154815290600101906020018083116102fc57829003601f168201915b5050505050908060060160009054906101000a900473ffffffffffffffffffffffffffffffffffffffff16905085565b606080606061035661062f565b60036040519080825280602002602001820160405280156103865781602001602082028038833980820191505090505b50935060006040519080825280602002602001820160405280156103b95781602001602082028038833980820191505090505b50925060006040519080825280602002602001820160405280156103ec5781602001602082028038833980820191505090505b50915088816000018190525081816020018190525087816040019061ffff16908161ffff168152505086816060019061ffff16908161ffff168152505085816080019061ffff16908161ffff1681525050848160a00181905250838160c00181905250828160e001819052503381610100019073ffffffffffffffffffffffffffffffffffffffff16908173ffffffffffffffffffffffffffffffffffffffff1681525050806000806001600081819054906101000a900461ffff168092919060010191906101000a81548161ffff021916908361ffff16021790555061ffff1661ffff16815260200190815260200160002060008201518160000190805190602001906104fb92919061069e565b50602082015181600101908051906020019061051892919061069e565b5060408201518160020160006101000a81548161ffff021916908361ffff16021790555060608201518160020160026101000a81548161ffff021916908361ffff16021790555060808201518160020160046101000a81548161ffff021916908361ffff16021790555060a082015181600301908051906020019061059e929190610748565b5060c08201518160040190805190602001906105bb9291906107c8565b5060e08201518160050190805190602001906105d89291906107c8565b506101008201518160060160006101000a81548173ffffffffffffffffffffffffffffffffffffffff021916908373ffffffffffffffffffffffffffffffffffffffff160217905550905050505050505050505050565b610120604051908101604052806060815260200160608152602001600061ffff168152602001600061ffff168152602001600061ffff168152602001606081526020016060815260200160608152602001600073ffffffffffffffffffffffffffffffffffffffff1681525090565b82805482825590600052602060002090600f016010900481019282156107375791602002820160005b8382111561070757835183826101000a81548161ffff021916908361ffff16021790555092602001926002016020816001010492830192600103026106c7565b80156107355782816101000a81549061ffff0219169055600201602081600101049283019260010302610707565b505b5090506107449190610852565b5090565b828054600181600116156101000203166002900490600052602060002090601f016020900481019282601f1061078957805160ff19168380011785556107b7565b828001600101855582156107b7579182015b828111156107b657825182559160200191906001019061079b565b5b5090506107c49190610883565b5090565b828054828255906000526020600020908101928215610841579160200282015b828111156108405782518260006101000a81548173ffffffffffffffffffffffffffffffffffffffff021916908373ffffffffffffffffffffffffffffffffffffffff160217905550916020019190600101906107e8565b5b50905061084e91906108a8565b5090565b61088091905b8082111561087c57600081816101000a81549061ffff021916905550600101610858565b5090565b90565b6108a591905b808211156108a1576000816000905550600101610889565b5090565b90565b6108e891905b808211156108e457600081816101000a81549073ffffffffffffffffffffffffffffffffffffffff0219169055506001016108ae565b5090565b905600a165627a7a7230582041c90e3b5e0f9918f514b00d56ce9a25b6c53ebadfc4cef05d3ab5404ed12ee20029",
  "source": "pragma solidity ^0.4.18;\n\nimport \"./Gold.sol\";\n\ncontract Game{\n\n    struct Player{\n        uint16[] attacks;\n        uint16[] moves;\n        uint16 exp;\n        uint16 health;\n        uint16 gold;\n        string handle;        \n        address[] challenges_inbox;\n        address[] challenges_sent;\n        address id;\n    }\n    // uint16 public num_players = 1; \n    // address[] request_list;\n    // address public moderator;\n    // Player[] public players;\n    mapping (uint16 => Player) public players;\n    uint16 playerCount = 0;\n    // constructor() public {\n    //     moderator = msg.sender;\n    // }\n\n    function register_player(uint16[] memory _attacks, uint16 exp, uint16 health, uint16 gold, string handle) public {\n        // require(moderator != msg.sender);\n        address[] memory challenges_inbox_ = new address[](3);\n        // challenges_inbox_[0]=1;\n        // challenges_inbox_[1]=2;\n        // challenges_inbox_[2]=3;\n        address[] memory challenges_sent_ =  new address[](0);\n        uint16[] memory moves_ =  new uint16[](0);\n        Player memory playerInstance;// = Player(_attacks,moves_,exp,health,gold,handle,challenges_inbox_,challenges_sent_,msg.sender);\n        playerInstance.attacks=_attacks;\n        playerInstance.moves=moves_;\n        playerInstance.exp=exp;\n        playerInstance.health=health;\n        playerInstance.gold=gold;\n        playerInstance.handle=handle;\n        playerInstance.challenges_inbox=challenges_inbox_;\n        playerInstance.challenges_sent=challenges_sent_;\n        playerInstance.id=msg.sender;\n        players[playerCount++] = playerInstance;\n    }\n\n    // function challenge_player(address to, uint16[4] move) public {\n    //     address player = msg.sender;\n    //     uint16 from = index_player(msg.sender);\n    //     uint16 _to = index_player(to);\n    //     players[_to].challenges_inbox.push(players[from].id);\n    //     players[from].challenges_sent.push(to);\n    //     players[from].moves = move;\n    // }\n\n    // function index_player(address player)\n    // private\n    // returns(uint16)\n    // {   \n    //     uint16 from;\n    //     for (uint16 i = 0; i < playerCount; i++){\n    //         if (players[i].id == player){\n    //             from = i;\n    //         }\n    //     }\n    //     return from;\n    // }\n\n    // function accept_challenge(uint16 idx, uint16[4] moves) public{\n    //     uint16 from = index_player(msg.sender);\n    //     players[from].moves = moves;\n    //     request_list.push(players[from].id);\n    //     request_list.push(players[from].challenges_inbox[idx]);\n    // }\n\n    // function see_requests() public { //rename to start games\n    //     require(msg.sender != moderator);\n    //     for (uint16 i = 0; i < request_list.length; i+=2){\n    //         play(request_list[i], request_list[i + 1]);\n    //     }\n    //     request_list.length=0;\n    // }\n\n    // function play(address p1, address p2) public {\n    //     require(msg.sender != moderator);\n    //     address winner = get_winner(p1, p2);\n    //     address loser;\n    //     if(p1 == winner){\n    //         loser = p2;\n    //     }\n    //     else{\n    //         loser = p1;\n    //     }\n    //     uint16 idx_winner = index_player(winner);\n    //     uint16 idx_loser = index_player(loser);\n    //     uint16 c = players[idx_winner].exp - players[idx_loser].exp; \n    //     players[idx_winner].gold += c;\n    //     players[idx_loser].gold -= c;\n    //     players[idx_winner].exp += 5*c;\n    //     players[idx_loser].exp -= 3*c;\n    //    // players[idx_winner].gold += players[idx_loser].gold \n    // }\n\n    // function buy_gold() public payable{\n    //     // uint16 no_gold = convert(msg.value);\n    //     uint16 no_gold = msg.value;\n    //     uint16 idx = index_player(msg.sender);\n    //     players[idx].gold += no_gold;       \n    // }\n\n    // function get_winner(address p1, address p2) public returns(address){\n    //     require((msg.sender != moderator));\n    //     uint16 idx1 = index_player(p1);\n    //     uint16 idx2 = index_player(p2);\n    //     // TODO implement a turn based smart contract so that winner will be calculated by each attack and defense pattern\n    //     Player P1 = players[idx1];\n    //     Player P2 = players[idx2];\n    //     uint16 difference = 0;\n    //     for (uint16 i = 0; i < P1.moves.length; i++){\n    //         difference += P1.attacks[P1.moves[i]] - P2.attacks[P1.moves[i]];\n    //     }   \n    //     if (difference > 0){\n    //         return p1;\n    //     }\n    //     else{\n    //         return p2;\n    //     }\n    // }\n}",
  "sourcePath": "/home/vineet/IIIT/DTB/game/Role-Play-/contracts/Game.sol",
  "compiler": {
    "name": "solc",
    "version": "0.4.24+commit.e67f0147.Emscripten.clang"
  },
  "schemaVersion": "2.0.1",
  "updatedAt": "2018-11-14T17:19:50.251Z"
}